:020000040000FA
:100000000C9463000C948B000C948B000C948B006C
:100010000C948B000C948B000C948B000C94DA05E0
:100020000C948B000C948B000C948B000C948C061D
:100030000C948B000C948B000C948B000C948B0014
:100040000C9490050C948B000C945A060C94340676
:100050000C948B000C948B000C948B000C948B00F4
:100060000C948B000C948B000200000000240027ED
:10007000002A0000000000250028002B00000000DE
:1000800000230026002900040404040404040402DC
:100090000202020202030303030303010204081025
:1000A00020408001020408102001020408102000F2
:1000B0000000080002010000030407000000000027
:1000C00000000000480711241FBECFEFD8E0DEBFBC
:1000D000CDBF12E0A0E0B1E0E6E3FAE102C0059096
:1000E0000D92A631B107D9F723E0A6E1B2E001C035
:1000F0001D92AF37B207E1F710E0C3E6D0E004C0CD
:100100002197FE010E94130DC236D107C9F70E9444
:100110001D080C94190D0C940000CF92DF92EF9201
:10012000FF92DC01A03282E0B807D4F5A53BB1050F
:1001300014F0A4EBB0E040917D0328E830E0241BEC
:10014000310947FD3395220F331F220F331F6901F9
:10015000330FEE08FF0840917E0328E532E0241BB0
:10016000310947FD3395220F331F220F331F032E12
:10017000000C440B550B2C193D094E095F09B7FFC4
:1001800002C0B0E0A0E00E94CE0C24EB30E040E0E2
:1001900050E00E94A40CC20ED31EE41EF51ED60130
:1001A000E0917C03EC3080F520917D0388E890E0BD
:1001B000821B910927FD9395880F991F880F991F1E
:1001C000A817B90784F020917E0388E592E0821B8E
:1001D000910927FD9395880F991F880F991FA817DC
:1001E000B9070CF4CD010297880F991F4FB7F89407
:1001F0002E2F30E0F901EE0FFF1FE20FF31FE05347
:10020000FD4F928381834FBFFF90EF90DF90CF909F
:10021000089596E0899FD0011124AB50BD4F909670
:100220007C936E935F9791E091969C939197E09168
:100230006203F091630390916103992339F0309741
:1002400051F0811108C0809111030994309719F081
:100250005C968C91FACF0895CF92DF92EF92FF9245
:100260000F931F9396E0899FF0011124EB50FD4FEF
:1002700011A2278D30A12130310551F178F02230C3
:10028000310509F451C02330310509F452C01F91E2
:100290000F91FF90EF90DF90CF9008956623B9F310
:1002A00061E070E00E9409012FB7F89480912F025D
:1002B00090913002A0913102B09132022FBF809311
:1002C0004D0390934E03A0934F03B0935003DFCFA1
:1002D0009FB7F894C0902F02D0903002E090310286
:1002E000F09032029FBF00914D0310914E03209178
:1002F0004F0330915003C01AD10AE20AF30A009169
:100300005F031091600330E020E00C151D052E0501
:100310003F0550F462E070E01F910F91FF90EF9065
:10032000DF90CF900C9409016111B1CF63E070E0D0
:10033000F3CF70E060E0F0CFFC01538D448D252FAA
:1003400030E0842F90E0821B930B541710F0CF966F
:10035000089501970895FC01918D828D981761F0A1
:10036000A28DAE0FBF2FB11D5D968C91928D9F5FB8
:100370009F73928F90E008958FEF9FEF0895FC0197
:10038000918D828D981731F0828DE80FF11D858D4A
:1003900090E008958FEF9FEF0895FC01918D228DDD
:1003A000892F90E0805C9F4F821B91098F73992762
:1003B0000895FC01A48DA80FB92FB11DA35ABF4FFA
:1003C0002C91848D90E001968F739927848FA68954
:1003D000B7892C93A089B1898C91837080648C93A8
:1003E000938D848D981306C00288F389E02D808157
:1003F0008F7D80830895EF92FF920F931F93CF9389
:10040000DF93EC0181E0888F9B8D8C8D98131AC04F
:10041000E889F989808185FF15C09FB7F894EE8936
:10042000FF896083E889F989808183708064808393
:100430009FBF81E090E0DF91CF911F910F91FF90DE
:10044000EF900895F62E0B8D10E00F5F1F4F0F7386
:100450001127E02E8C8D8E110CC00FB607FCFACF41
:10046000E889F989808185FFF5CFCE010E94D90105
:10047000F1CFEB8DEC0FFD2FF11DE35AFF4FF08212
:100480009FB7F8940B8FEA89FB8980818062CFCF78
:10049000CF93DF93EC01888D8823B9F0AA89BB89BB
:1004A000E889F9898C9185FD03C0808186FD0DC0A6
:1004B0000FB607FCF7CF8C9185FFF2CF808185FFC7
:1004C000EDCFCE010E94D901E9CFDF91CF91089500
:1004D00083E392E00E94CD0121E0892B09F420E022
:1004E000822F089580E090E0892B29F00E94680215
:1004F00081110C9400000895833081F028F481303C
:1005000099F08230A9F008958730A9F08830C9F0B9
:100510008430B1F4809180008F7D03C08091800091
:100520008F7780938000089584B58F7784BD089578
:1005300084B58F7DFBCF8091B0008F778093B00022
:1005400008958091B0008F7DF9CFCF93DF93282F4E
:1005500030E0F901E155FF4F8491F901E556FF4F75
:10056000D491F901E957FF4FC491CC23A1F0811137
:100570000E947C02EC2FF0E0EE0FFF1FE358FF4FCC
:10058000A591B491EC91ED2381E090E009F480E035
:10059000DF91CF91089580E090E0FACF1F93CF9341
:1005A000DF93282F30E0F901E155FF4F8491F901E5
:1005B000E556FF4FD491F901E957FF4FC491CC2381
:1005C000A9F0162F81110E947C02EC2FF0E0EE0FB3
:1005D000FF1FED58FF4FA591B4918FB7F894EC91A0
:1005E000111108C0D095DE23DC938FBFDF91CF912E
:1005F0001F910895DE2BF8CFCF93DF9390E0FC019D
:10060000E556FF4F249189579F4FFC018491882321
:10061000C9F090E0880F991FFC01E759FF4FA591A1
:10062000B491FC01ED58FF4FC591D49161110DC0FB
:100630009FB7F8948C91209582238C9388812823EE
:1006400028839FBFDF91CF910895623051F49FB707
:10065000F8943C91822F809583238C93E8812E2BF4
:10066000EFCF8FB7F894EC912E2B2C938FBFEACF5E
:100670003FB7F89480912B0290912C02A0912D020B
:10068000B0912E0226B5A89B05C02F3F19F0019608
:10069000A11DB11D3FBFBA2FA92F982F8827BC01DC
:1006A000CD01620F711D811D911D42E0660F771F04
:1006B000881F991F4A95D1F708958F929F92AF9204
:1006C000BF92CF92DF92EF92FF924B015C010E94AA
:1006D00038036B017C010E9438036C197D098E0977
:1006E0009F09683E734081059105A8F321E0821AB5
:1006F0009108A108B10888EEC80E83E0D81EE11C5D
:10070000F11C81149104A104B10429F7FF90EF902A
:10071000DF90CF90BF90AF909F908F900895862FDD
:10072000642F0C94FC02862F642F0C94CE02862F2B
:100730000C94A5029091000189130BC0E8E6F0E04B
:10074000E4919FEF90930001E13049F028F0E2300E
:1007500061F060E00C94CE0210926E00FACF90919E
:100760006F009D7F90936F00F4CF909170009D7FFC
:100770009093700091E09093B0009091B100987FB9
:1007800094609093B1001092B300E3CFAF92BF9208
:10079000CF92DF92EF92FF920F931F93CF93DF934D
:1007A0006C017B018B01040F151FEB015E01AE187C
:1007B000BF08C017D10759F06991D601ED91FC919E
:1007C0000190F081E02DC6010995892B79F7C501CB
:1007D000DF91CF911F910F91FF90EF90DF90CF901D
:1007E000BF90AF900895089590E080E00895FB01D8
:1007F00001900020E9F73197AF01461B570BDC0150
:10080000ED91FC910280F381E02D0994BC0184E616
:1008100093E00C94F7030F931F93CF93DF93EC01B6
:100820000E94F7038C016CE371E0CE010E94F70394
:10083000800F911FDF91CF911F910F910895CF935A
:10084000DF93EC0160E08E810E94CE0261E08E8138
:100850000E94CE0260E08E810E94CE028BE891E081
:100860000197F1F7DF91CF910895CF92DF92EF9248
:10087000FF920F931F93CF93DF936C017C0187E06E
:10088000E80EF11CD0E0C0E0062F10E0B8010C2EFD
:1008900002C0759567950A94E2F76170F70181913E
:1008A0007F010E94CE022196C430D10579F7C6019E
:1008B000DF91CF911F910F91FF90EF90DF90CF903C
:1008C0000C941F04CF92DF92EF92FF920F931F932D
:1008D000CF93DF93EC01F62E642F8C810E94CE0221
:1008E0008D818F3F19F060E00E94CE020F2D10E045
:1008F0008F8584FF25C06E0187E0C80ED11CF12CC6
:10090000E12CB8010E2C02C0759567950A94E2F7A8
:100910006170F60181916F010E94CE02FFEFEF1A24
:10092000FF0A88E0E816F10461F7CE01DF91CF916C
:100930001F910F91FF90EF90DF90CF900C941F04C8
:10094000B80184E0759567958A95E1F7CE010E941C
:1009500035046F2DCE01DF91CF911F910F91FF9044
:10096000EF90DF90CF900C94350440E0682F84E640
:1009700093E00C94620481E00E94B5048BE39FE154
:100980000197F1F70895CF93DF93823029F4909186
:1009900073039860909373038093770310927803A6
:1009A00080E48093790380E180937A0380E58093EB
:1009B0007B0361E0809168030E94FC0280916903DF
:1009C0008F3F19F061E00E94FC0261E080916A03B0
:1009D0000E94FC02C4E6D3E09E012456334080917D
:1009E000730384FD0BC084E090E02196281739073B
:1009F00044F461E08E810E94FC02EECF88E090E03A
:100A0000F4CF8BE39DE00197F1F760E080916803FC
:100A10000E94CE0260E080916A030E94CE02809123
:100A200069038F3F19F060E00E94CE02809173034A
:100A300084FD34C063E084E693E00E943504CBE497
:100A4000D6E4CE010197F1F763E084E693E00E94DB
:100A500035042197F1F763E084E693E00E943504C2
:100A600083E592E00197F1F762E084E693E00E946B
:100A700035048091730380620E94B50484E0809302
:100A800074038CE00E94B5040E94BB0482E0809352
:100A9000750386E0DF91CF910C94B50480620E94CB
:100AA000B5048BE496E40197F1F7809173038062BB
:100AB0000E94B50483E592E00197F1F780917303FA
:100AC00080620E94B504D5CF643008F063E0909155
:100AD0007703691710F06FEF690FE62FF0E0EC591C
:100AE000FC4F9489890F80680C94B50460E080E025
:100AF0000E9464056FE371E084E693E00E940B04BA
:100B000061E081E00E94640560E571E084E693E0C5
:100B10000C940B0441E00E94620481E090E008958F
:100B20001F920F920FB60F9211242F933F938F9322
:100B30009F93AF93BF9380912F0290913002A09129
:100B40003102B091320230912A0223E0230F2D3777
:100B500058F50196A11DB11D20932A0280932F0202
:100B600090933002A0933102B093320280912B0215
:100B700090912C02A0912D02B0912E020196A11D00
:100B8000B11D80932B0290932C02A0932D02B09361
:100B90002E02BF91AF919F918F913F912F910F9016
:100BA0000FBE0F901F90189526E8230F0296A11DE7
:100BB000B11DD2CF1F920F920FB60F9211242F9317
:100BC0003F934F935F936F937F938F939F93AF93D5
:100BD000BF93EF93FF938091220290912302A09103
:100BE0002402B0912502892B8A2B8B2BC1F1909185
:100BF00021028091000089278093000080912202C9
:100C000090912302A0912402B09125021816190692
:100C10001A061B069CF48091220290912302A09157
:100C20002402B09125020197A109B1098093220203
:100C300090932302A0932402B0932502FF91EF9199
:100C4000BF91AF919F918F917F916F915F914F91E4
:100C50003F912F910F900FBE0F901F90189580918C
:100C600000010E949A03EACF1F920F920FB60F92D3
:100C700011242F933F934F935F936F937F938F93A1
:100C80009F93AF93BF93EF93FF9383E392E00E9410
:100C9000D901FF91EF91BF91AF919F918F917F917A
:100CA0006F915F914F913F912F910F900FBE0F90D9
:100CB0001F9018951F920F920FB60F9211242F9329
:100CC0008F939F93EF93FF93E0914302F09144023F
:100CD0008081E0914902F0914A0282FD1BC090811F
:100CE00080914C028F5F8F7320914D02821741F0EB
:100CF000E0914C02F0E0ED5CFD4F958F80934C024B
:100D0000FF91EF919F918F912F910F900FBE0F90B8
:100D10001F9018958081F4CF1F920F920FB60F92FB
:100D200011242F933F934F935F936F937F938F93F0
:100D30009F93AF93BF93CF93DF93EF93FF938091F4
:100D40002002C091F402D0E087FF24C010928500F9
:100D500010928400809120028F5F80932002809106
:100D60002002082E000C990B8C179D0724F480910B
:100D700020028C30C4F1809184009091850004960B
:100D800080349C4908F47AC0809184009091850059
:100D9000049676C080912002082E000C990B8C17C7
:100DA0009D07C4F6E09120028E2FEE0F990BFC01F7
:100DB000EE0FFF1FE80FF91FE053FD4F808186FF04
:100DC000C9CFE09120028E2FEE0F990BFC01EE0FA0
:100DD000FF1FE80FF91FE053FD4F808160E08F7324
:100DE0000E94CE02B7CF2091840030918500E0911F
:100DF00020028E2FEE0F990BFC01EE0FFF1FE80F64
:100E0000F91FE053FD4F81819281820F931F9093D0
:100E1000890080938800E09120028E2FEE0F990BBD
:100E2000FC01EE0FFF1FE80FF91FE053FD4F80811B
:100E300086FF11C0E09120028E2FEE0F990BFC016E
:100E4000EE0FFF1FE80FF91FE053FD4F808161E0B7
:100E50008F730E94CE02FF91EF91DF91CF91BF91EE
:100E6000AF919F918F917F916F915F914F913F9142
:100E70002F910F900FBE0F901F90189580E49CE962
:100E800090938900809388008FEF80932002E3CFB6
:100E9000109236021092350288EE93E0A0E0B0E0A6
:100EA0008093370290933802A0933902B0933A02AC
:100EB00088E191E0909334028093330285EC90E0D6
:100EC0009093400280933F0284EC90E09093420222
:100ED0008093410280EC90E090934402809343021F
:100EE00081EC90E0909346028093450282EC90E082
:100EF000909348028093470286EC90E090934A02D8
:100F00008093490210924C0210924D0210924E02B0
:100F100010924F028091F4028C3008F08AC091E068
:100F2000980F9093F40280937C0390E0FC01EE0F05
:100F3000FF1FE80FF91FE053FD4F88EB9BE0928302
:100F40008183109267031092660384E391E090938B
:100F500065038093640382E1809368038FEF80933D
:100F6000690383E180936A0381E180936B0380E1ED
:100F700080936C038FE080936D038EE080936E030B
:100F800010926F031092700310927103109272030B
:100F90001092730381E00E94C3041092F702109232
:100FA000FB021092FA021092FC028AE291E0909306
:100FB000F6028093F502E1E1F3E0108214821382DD
:100FC0001582369683E0ED34F807B9F784E091E0B6
:100FD000909358038093570381E091E090935A03D4
:100FE0008093590384E080935B0383E080935C03E8
:100FF00088E091E090935603809355038AE090E057
:1010000090935E0380935D0384EF91E0909360037F
:1010100080935F0310926303109262031092510356
:1010200010925203109253031092540310926103D2
:1010300008958FEF80937C0384CF789484B5826089
:1010400084BD84B5816084BD85B5826085BD85B56C
:10105000816085BD80916E00816080936E001092EA
:101060008100809181008260809381008091810065
:1010700081608093810080918000816080938000F6
:101080008091B10084608093B1008091B000816054
:101090008093B00080917A00846080937A00809180
:1010A0007A00826080937A0080917A0081608093D8
:1010B0007A0080917A00806880937A001092C10053
:1010C0000E94760580917C038C3008F051C061E06D
:1010D00089E00E94FC0280917C03282F30E0F90116
:1010E000EE0FFF1FE20FF31FE053FD4F9081907C46
:1010F0009960908310927D0310927E032CE0622F02
:101100000E94070D829FB001112430E020E0AB0166
:10111000420F531FFA01EE0FFF1FE40FF51FE053BC
:10112000FD4F908196FD16C02F5F3F4F2C3031054B
:1011300071F781110FC01092800082E080938100CE
:101140001092850010928400B19A80916F008260A5
:1011500080936F00E0917C038E2F90E0FC01EE0FF6
:10116000FF1FE80FF91FE053FD4F808180648083EB
:1011700082E00E94C30461E08CE00E94FC0261E016
:101180008DE00E94FC0261E08AE00E94FC0260E0C7
:101190008CE00E94CE0260E08DE00E94CE02812CA5
:1011A000912C5401839440E0442E40E0542E54EBA3
:1011B000652E712C8091280290912902892B11F4BF
:1011C0000E94760551E0509361038FB7F8944091E7
:1011D0002F025091300260913102709132028FBF24
:1011E0008091510390915203A0915303B091540305
:1011F000481B590B6A0B7B0B80915D0390915E033A
:10120000B0E0A0E084179507A607B70708F017C15C
:10121000C0E080915B03C81760F4E0915703F09140
:101220005803EC0FF11D62E080810E94FC02CF5F49
:10123000F0CF312C80915C03381608F05FC0032D8D
:1012400010E0E0915903F0915A03E00FF11F61E0C3
:1012500080810E94FC02E0915903F0915A03E00F53
:10126000F11F60E080810E94CE02D501C401032CF1
:1012700004C0880F991FAA1FBB1F0A94D2F76C01E4
:101280007C01E094F094212C80915B032816F8F403
:10129000C22DD0E0E0915703F0915803EC0FFD1FF1
:1012A00080810E94A5022496CC0FDD1FCB50DD4F1C
:1012B000892B41F4888199818C299D299983888380
:1012C0002394E2CF888199818E219F21F7CFE091ED
:1012D0005903F0915A03E00FF11F61E080810E94F1
:1012E000CE028091590390915A03080F191F60E0B4
:1012F000F80180810E94FC0233949CCFC5EFD2E0BC
:10130000FE01878D90A1892B31F4148E8FEF9FEF12
:10131000968F858F11A2369693E0E133F90789F70E
:10132000F12C80915B03F81608F051C0E12C0F2DD1
:1013300010E0000F111F03501D4F20915C03E216B7
:1013400008F043C0F801608171810E2C02C07695CF
:1013500067950A94E2F7F29E900111242E0D311D3B
:10136000E5EFF2E080E0458D568D2417350709F44E
:10137000E9C28F5F36968A30B1F760FF24C0E5EF8F
:10138000F2E090E080E0448D411118C0E0915503F7
:10139000F0915603E20FF31F408156E0589FF00191
:1013A000599FF00D1124EB50FD4F448F368F258F40
:1013B00010A2178E61E00E942C0105C0019636969E
:1013C0008A30910501F7E394B8CFF394AACF80E077
:1013D00099A19111892F269693E0C133D907C1F7BE
:1013E0009FB7F89440912F025091300260913102E2
:1013F000709132029FBF4093510350935203609308
:101400005303709354038823D1F0809116038823EB
:10141000B1F08091140390911503019781F410911C
:10142000110311110FC04114510409F4C3CE0E94DD
:101430006802882309F4BECE0E940000BBCE109241
:101440006103F1CF0E94BB0460E080E00E9464056C
:101450008FE591E00E94060461E087E00E94640548
:1014600089E691E00E94060461E087E00E9464053D
:10147000D0E0C0E080912802909129028C179D074E
:1014800034F08EE491E00E9406042196F3CFFC0133
:10149000E559FE4F20812113F9C10196909329024D
:1014A00080932802049709F0BECF64E873E080E0DF
:1014B00090E00E945D0360E080E00E94640569E6C0
:1014C00071E084E693E00E940B0460E081E00E94FA
:1014D000640580E791E00E94060461E084E00E94D8
:1014E00064056FE771E084E693E00E940B0461E01D
:1014F0008CE00E94CE0260E08DE00E94CE0261E0AE
:101500008AE00E94CE0268EE73E080E090E00E94E4
:101510005D0364E873E080E090E00E945D0361E0B9
:101520008FE00E94640569E671E084E693E00E9422
:101530000B0461E080E10E94640569E671E084E6E5
:1015400093E00E940B0461E08EE00E94640569E66E
:1015500071E084E693E00E940B0461E08DE00E945C
:10156000640569E671E084E693E00E940B047092E2
:10157000270260922602C0912602D0912702D7FD51
:101580000FC0CE010E948D0065E070E080E090E029
:101590000E945D032597D0932702C0932602EBCFCC
:1015A00068EE73E080E090E00E945D036CEB72E017
:1015B00080E090E00E945D0360EB74E080E090E0EA
:1015C0000E945D030E94BB046FE082E00E946405FC
:1015D00069E671E084E693E00E940B046EE082E02D
:1015E0000E94640569E671E084E693E00E940B04C2
:1015F00060E082E00E94640568EC70E080E090E0CA
:101600000E945D0369E871E084E693E00E940B04A8
:1016100061E084E00E9464058AE991E00E9406048A
:1016200068EC70E080E090E00E945D030E94BB04E3
:1016300060E082E00E9464056CE971E084E693E07A
:101640000E940B0468EE73E080E090E00E945D036E
:1016500060E082E00E9464056CE971E084E693E05A
:101660000E940B0461E084E00E9464058BEA91E033
:101670000E94060464E670E080E090E00E945D0352
:101680000E94BB0460E082E00E9464056CE971E0A6
:1016900084E693E00E940B0468EE73E080E090E043
:1016A0000E945D0360E082E00E9464056CE971E0E5
:1016B00084E693E00E940B0461E084E00E946405EC
:1016C0008EE691E00E94060464E670E080E090E01F
:1016D0000E945D030E94BB0460E082E00E946405FA
:1016E0006CE971E084E693E00E940B0468EE73E01D
:1016F00080E090E00E945D0360E082E00E9464056B
:101700006CE971E084E693E00E940B0461E084E000
:101710000E9464058DEA91E00E94060464E670E090
:1017200080E090E00E945D030E94BB0460E082E0E4
:101730000E9464056CE971E084E693E00E940B046A
:1017400068EE73E080E090E00E945D0361E084E079
:101750000E9464058FEA91E00E94060464E670E04E
:1017600080E090E00E945D030E94BB0460E082E0A4
:101770000E94640561EB71E084E693E00E940B0433
:1017800068EE73E080E090E00E945D0368E270E044
:1017900080E090E00E945D030E94BB0460E082E074
:1017A0000E94640581EC91E00E94060464EF71E000
:1017B00080E090E00E945D0360E08CE00E946405A0
:1017C0008CEC91E00E94060464EF71E080E090E010
:1017D0000E945D0360E08DE00E9464058CEC91E066
:1017E0000E94060464EF71E080E090E00E945D03D7
:1017F00060E08EE00E9464058CEC91E00E9406049B
:1018000060E971E080E090E00E945D030E94BB040B
:1018100060E084E00E9464058EEC91E00E94060482
:1018200060E08CE00E94CE0268EB71E080E090E026
:101830000E945D0368EE73E080E090E00E945D032B
:101840001092270210922602809126029091270280
:10185000853B91050CF071C00E948D006FE070E037
:1018600080E090E00E945D0310922902109228020D
:101870000E94BB040E947605809126029091270267
:1018800005969093270280932602DECF64EF71E0E5
:1018900080E090E00E945D030E94BB0460E081E074
:1018A0000E94640586ED91E00E94060460E086E0F7
:1018B0000E9464058BED91E00E94060461E08DE0DA
:1018C0000E94CE0260E08CE00E94CE028AE00E947C
:1018D0009A0368EE73E080E090E00E945D0361E0AF
:1018E0008FE00E94640569E671E084E693E00E945F
:1018F0000B0461E084E00E94640565EE71E084E61B
:1019000093E00E940B0461E08DE00E94640569E6AB
:1019100071E084E693E00E940B0461EF71E083E3E1
:1019200092E00E940B046CEB72E080E090E00E9479
:101930005D030E94BB040E9476051092290210925A
:10194000280271CD617037CD052E97FB1EF40094EF
:101950000E94BB0C57FD07D00E94D60C07FC03D099
:101960004EF40C94BB0C50954095309521953F4F0B
:101970004F4F5F4F089590958095709561957F4F7B
:101980008F4F9F4F08950E94F80CA59F900DB49F14
:10199000900DA49F800D911D11240895B7FF0C9404
:1019A000C30C0E94C30C821B930B0895A1E21A2E54
:1019B000AA1BBB1BFD010DC0AA1FBB1FEE1FFF1FF3
:1019C000A217B307E407F50720F0A21BB30BE40B43
:1019D000F50B661F771F881F991F1A9469F760958A
:1019E0007095809590959B01AC01BD01CF01089544
:1019F000A29FB001B39FC001A39F700D811D112450
:101A0000911DB29F700D811D1124911D0895991B88
:101A100079E004C0991F961708F0961B881F7A95E5
:101A2000C9F780950895EE0FFF1F0590F491E02D02
:101A30000994F894FFCFFF04050600010203313238
:101A4000333435363738392A302300000000FB01A3
:101A5000C6039C014802CD01AB01BF01000000009C
:101A60008F0393039703000000008A05C603F40365
:101A7000F3030D0A002A454E544552205448452090
:101A8000434F44452A00544F204F50454E20444F69
:101A90004F5221210050415353574F52443A002096
:101AA00000303132330041636365737320477261E4
:101AB0006E7465640057454C434F4D4521210047E6
:101AC000455420494E2057495448494E3A3A3A0025
:101AD000350047455420494E2057495448494E3A0D
:101AE0000034003200310047455420494E20574908
:101AF0005448494E3A3A0052452D4C4F434B494EBB
:101B000047002E004C4F434B45442100434F444572
:101B100000494E434F5252454354004745542041DB
:101B200057415921212100434F444520494E434FFD
:101B3000525245435420594F552041524520554E4D
:0C1B4000415554484F52495A454400009A
:107E0000112484B714BE81FFF0D085E080938100F7
:107E100082E08093C00088E18093C10086E0809377
:107E2000C20080E18093C4008EE0C9D0259A86E02C
:107E300020E33CEF91E0309385002093840096BBD3
:107E4000B09BFECF1D9AA8958150A9F7CC24DD24C4
:107E500088248394B5E0AB2EA1E19A2EF3E0BF2EE7
:107E6000A2D0813461F49FD0082FAFD0023811F036
:107E7000013811F484E001C083E08DD089C08234E0
:107E800011F484E103C0853419F485E0A6D080C0E4
:107E9000853579F488D0E82EFF2485D0082F10E0AE
:107EA000102F00270E291F29000F111F8ED06801E7
:107EB0006FC0863521F484E090D080E0DECF843638
:107EC00009F040C070D06FD0082F6DD080E0C81688
:107ED00080E7D80618F4F601B7BEE895C0E0D1E017
:107EE00062D089930C17E1F7F0E0CF16F0E7DF06D8
:107EF00018F0F601B7BEE89568D007B600FCFDCFD4
:107F0000A601A0E0B1E02C9130E011968C91119780
:107F100090E0982F8827822B932B1296FA010C0160
:107F200087BEE89511244E5F5F4FF1E0A038BF0790
:107F300051F7F601A7BEE89507B600FCFDCF97BE46
:107F4000E89526C08437B1F42ED02DD0F82E2BD052
:107F50003CD0F601EF2C8F010F5F1F4F84911BD097
:107F6000EA94F801C1F70894C11CD11CFA94CF0C13
:107F7000D11C0EC0853739F428D08EE10CD085E9AC
:107F80000AD08FE07ACF813511F488E018D01DD067
:107F900080E101D065CF982F8091C00085FFFCCF94
:107FA0009093C60008958091C00087FFFCCF809118
:107FB000C00084FD01C0A8958091C6000895E0E648
:107FC000F0E098E1908380830895EDDF803219F02E
:107FD00088E0F5DFFFCF84E1DECF1F93182FE3DFCA
:107FE0001150E9F7F2DF1F91089580E0E8DFEE27F6
:047FF000FF270994CA
:027FFE00040479
:00000001FF
